S00C00006C6162342E73726563B5
S11300000C94B0000C94CD000C94CD000C94C10160
S11300100C94CD000C94CD000C94CD000C94CD0028
S11300200C94CD000C94CD000C940E030C944C0352
S11300300C94CD000C94CD000C94CD000C94CD0008
S11300400C94CD000C9449010C94CD000C94CD007B
S11300500C94CD000C94CD000C94CD000C94CD00E8
S11300600C94CD000C94CD000C94CD000C94CD00D8
S11300700C94CD000C94CD000C94CD000C94CD00C8
S11300800C94B0010C94CD000C94CD000C94CD00D4
S11300900C94CD000C94CD000C94CD000C94CD00A8
S11300A00C94CD000C94CD000C94CD000001000004
S11300B04301120002000000014300030000FC00A1
S11300C00401030904E8001202030904E000060322
S11300D0030904D60008080334003100300000008E
S11300E006034D003200000012034A002E002000D7
S11300F04600690065006E00650000000403090401
S113010009024300020100C0320904000001020296
S11301100100052400100105240101010424020644
S113012005240600010705820310004009040100AC
S1130130020A0000000705030240000007058402CC
S11301404000001201000202000010C0167A0400F0
S113015001010203010001C1120180360181360050
S113016011241FBECFEFDAE0DEBFCDBF11E0A0E067
S1130170B1E0E8E4FDE002C005900D92A43DB107B2
S1130180D9F721E0A4EDB1E001C01D92A03EB20771
S1130190E1F70E943A010C94A2060C940000E1E6F7
S11301A0F0E080E880831082269A209A789408955B
S11301B0CF93DF93E8E8F0E0CFE6D0E0D183C083CB
S11301C0808191819695879590938B0080938A0086
S11301D0E1E8F0E0808180618083808188608083B1
S11301E0A0E8B0E08C9182608C938C9181608C93B8
S11301F08C9180628C938C918F7E8C9380818B7F89
S1130200808380818260808380818E7F80838881E7
S113021082608883DF91CF91089589E09DE3909374
S1130220990080939800E1E9F0E080818F7E8083DB
S1130230808188608083A0E9B0E08C918D7F8C936D
S11302408C918E7F8C9380818460808380818D7F6C
S11302508083808181608083E1E7F0E08081826037
S1130260808308950E94430243E06CE781E00E948A
S1130270540208956E9A76980E94CF000E94D80086
S11302800E940D010E9432016A9A72986E9A769ABF
S1130290FFCF1F920F920FB60F9211242F933F930B
S11302A04F935F936F937F938F939F93AF93BF937A
S11302B0EF93FF938091D6019091D701892BA9F1F7
S11302C04091880050918900E091D801F091D901C2
S11302D0EE0FFF1FE050FF4F80819181489F9001F6
S11302E0499F300D589F300D11243695279536952A
S11302F02795ABE7B4E10E947F0696958795909386
S11303008B0080938A008091D8019091D901019645
S1130310843691052CF49093D9018093D8010FC0B1
S11303201092D9011092D8010AC08091880090914E
S113033089009695879590938B0080938A00FF910E
S1130340EF91BF91AF919F918F917F916F915F9149
S11303504F913F912F910F900FBE0F901F901895C2
S11303601F920F920FB60F9211241092D701109280
S1130370D6016E9A769A28980F900FBE0F901F9010
S113038018951F920F920FB60F9211242F933F933B
S11303904F935F936F937F938F939F93AF93BF9389
S11303A0CF93DF93EF93FF9363E08AED91E00E9494
S11303B0AA02CAEDD1E0888199816AE070E00E94C6
S11303C06B06072E000C880B990B0E9472059B018B
S11303D0AC016093C8017093C9018093CA019093E2
S11303E0CB01E4EDF1E08A81808380819181909357
S11303F0D7018093D60160E074E284EF99E40E940F
S1130400CF0420E030E048EC52E40E94CF040E9484
S1130410410570938900609388006091D6017091C2
S1130420D701072E000C880B990B0E94720520E05F
S113043030E048EC52E40E94CF0420E034E244E788
S113044056E40E94FE050E94410570939900609352
S1130450980010929500109294006E9A7698289ABB
S1130460FF91EF91DF91CF91BF91AF919F918F91C8
S11304707F916F915F914F913F912F910F900FBE9C
S11304800F901F901895589A599A5A9A8CE0809315
S1130490B800E9E6F0E080818062808380818F7E0D
S11304A08083EA9A789408951F93CF93DF93182F4B
S11304B0D62FC42F0E94430294EA9093BC00ECEB25
S11304C0F0E090819923ECF790E59093BB0094E8D9
S11304D09093BC00ECEBF0E090819923ECF79091C1
S11304E0B900987F903229F484E98093BC0080E0BD
S11304F02DC081E08093BB0084E88093BC00ECEBCA
S1130500F0E090819923ECF71093BB0084E880938A
S1130510BC00ECEBF0E080818823ECF7D093BB00C7
S113052084E88093BC00ECEBF0E080818823ECF756
S1130530C093BB0084E88093BC00ECEBF0E08081C6
S11305408823ECF784E98093BC0081E0DF91CF91AC
S11305501F910895CF93DF939C0184EA8093BC009C
S1130560ECEBF0E090819923ECF781E58093BB00FC
S113057084E88093BC00ECEBF0E090819923ECF7E5
S11305808091B900887F883429F484E98093BC0081
S113059080E041C084EC8093BC00ECEBF0E09081FF
S11305A09923ECF74091BB00461309C0842F90E0D7
S11305B001971816190644F040E050E01AC084E987
S11305C08093BC0080E027C0D90150E0415051091C
S11305D0B901640F751FECEBF0E084ECCBEBD0E0D9
S11305E0808390819923ECF798819D93A617B70790
S11305F0B9F784E88093BC00ECEBF0E09081992398
S1130600ECF78091BB00F901E40FF51F808384E9C6
S11306108093BC0081E0DF91CF9108951F920F92E7
S11306200FB60F9211248F939F93EF93FF93E1EEF4
S1130630F0E08081108283FF11C01092E90091E004
S11306409093EB001092EC0092E19093ED0098E00F
S11306509093F0001092DF011092DD0182FF13C02D
S11306608091DF01882379F08091DE01882359F09D
S113067081508093DE01811106C084E08093E900FB
S11306808AE38093E800FF91EF919F918F910F90FF
S11306900FBE0F901F9018951F920F920FB60F92D6
S11306A011240F931F932F933F934F935F936F9353
S11306B07F938F939F93AF93BF93CF93DF93EF93E6
S11306C0FF931092E9008091E80083FF4CC1E1EFB1
S11306D0F0E0608180812081908130E0392B40817D
S11306E0908150E0592B7081C08192EF9093E80083
S11306F0863009F058C004C081E28093EB003AC10F
S113070066E08CEA90E0FC01A591B4912A173B07BE
S113071011F0079623C0FC013296A591B4914A17B3
S11307205B0711F007961AC0FC0134964591549169
S1130730FC0136962491872F90E09C2B8F3F9105E6
S113074019F010F08FEF90E0821708F4282FA8EE2C
S1130750B0E070E16EEFC1EFD0E003C0615099F6F4
S1130760CBCF8C91982F9570E1F382FD03C1322F8A
S1130770213108F0372F332309F4F9C0FA01832F0C
S113078094919883815031968111FACF8FEF830F22
S113079090E00196480F591F231B6C932111E1CF60
S11307A03031F9F2E7C0853061F48EEF8093E800D0
S11307B0E8EEF0E0808180FFFDCF20682093E30025
S11307C0D9C0893009F035C06111CDC02093DF0153
S11307D01092DD011092DE018EEF8093E80081E03B
S11307E025E531E0C9EED0E0ABEEB0E00CEE10E070
S11307F06DEE70E08883A9014F5F5F4FF90194911A
S11308009C93992361F0FA014491F8014083F90122
S1130810329694912D5F3F4FFB01908301C09A0162
S11308208F5F853039F7EAEEF0E08EE18083108245
S1130830A1C0883081F4603809F095C0E8EEF0E09A
S1130840808180FFFDCF8091DF018093F1008EEFE6
S11308508093E8008FC08132B9F4613A09F083C013
S1130860E8EEF0E0808180FFFDCFECECF1E023EDD9
S113087031E0A1EFB0E081918C93E217F307D9F74F
S11308808EEF8093E80076C08032D1F4613209F0B3
S11308906AC0E8EEF0E0808182FFFDCFECECF1E08D
S11308A023ED31E0A1EFB0E08C918193E217F307DF
S11308B0D9F7E8EEF0E08BEF80838EEF80835AC0A7
S11308C0823271F4613209F04EC02093DD01E8EE0A
S11308D0F0E0808180FFFDCF8EEF8093E8004AC076
S11308E081111AC0E8EEF0E0808180FFFDCF62380C
S11308F051F4E9EEF0E040838091EB0085FB88271A
S113090080F9108201C080E0E1EFF0E08083108282
S11309108EEF8093E8002EC0982F9D7F913019F5BB
S1130920623009F5232BF9F44F779FEF940F94303D
S1130930D0F49EEF9093E8004093E900833021F4D3
S113094081E28093EB0016C089E18093EB0081E0A3
S113095090E002C0880F991F4A95E2F7EAEEF0E0B2
S11309608083108207C081E28093EB0003C06C9304
S11309702111F7CEFF91EF91DF91CF91BF91AF910C
S11309809F918F917F916F915F914F913F912F91A3
S11309901F910F910F900FBE0F901F9018950E94FA
S11309A0E3040C94C4050E94BD0558F00E94B605EA
S11309B040F029F45F3F29F00C94AD0551110C94DB
S11309C0F8050C94B3050E94D50568F39923B1F397
S11309D0552391F3951B550BBB27AA276217730761
S11309E0840738F09F5F5F4F220F331F441FAA1FF5
S11309F0A9F335D00E2E3AF0E0E832D091505040B1
S1130A00E695001CCAF72BD0FE2F29D0660F771F5E
S1130A10881FBB1F261737074807AB07B0E809F044
S1130A20BB0B802DBF01FF2793585F4F3AF09E3FC9
S1130A30510578F00C94AD050C94F8055F3FE4F390
S1130A40983ED4F3869577956795B795F7959F5F0C
S1130A50C9F7880F911D9695879597F90895E1E058
S1130A60660F771F881FBB1F621773078407BA07B7
S1130A7020F0621B730B840BBA0BEE1F88F7E09512
S1130A8008950E94DD0588F09F5798F0B92F9927A3
S1130A90B751B0F0E1F0660F771F881F991F1AF065
S1130AA0BA95C9F714C0B13091F00E94F705B1E0CE
S1130AB008950C94F705672F782F8827B85F39F0CD
S1130AC0B93FCCF3869577956795B395D9F73EF4FE
S1130AD090958095709561957F4F8F4F9F4F0895A6
S1130AE0E89409C097FB3EF49095809570956195C4
S1130AF07F4F8F4F9F4F9923A9F0F92F96E9BB277A
S1130B009395F695879577956795B795F111F8CFF5
S1130B10FAF4BB0F11F460FF1BC06F5F7F4F8F4F60
S1130B209F4F16C0882311F096E911C0772321F056
S1130B309EE8872F762F05C0662371F096E8862FEE
S1130B4070E060E02AF09A95660F771F881FDAF745
S1130B50880F9695879597F9089597F99F6780E888
S1130B6070E060E008959FEF80EC089500240A94FB
S1130B701616170618060906089500240A94121674
S1130B801306140605060895092E0394000C11F4A7
S1130B90882352F0BB0F40F4BF2B11F460FF04C054
S1130BA06F5F7F4F8F4F9F4F089557FD9058440FAD
S1130BB0551F59F05F3F71F04795880F97FB991FB8
S1130BC061F09F3F79F08795089512161306140675
S1130BD0551FF2CF4695F1DF08C016161706180602
S1130BE0991FF1CF86957105610508940895E894DD
S1130BF0BB2766277727CB0197F908950E94110632
S1130C000C94C4050E94B60538F00E94BD0520F07E
S1130C10952311F00C94AD050C94B30511240C9498
S1130C20F8050E94D50570F3959FC1F3950F50E028
S1130C30551F629FF001729FBB27F00DB11D639F8A
S1130C40AA27F00DB11DAA1F649F6627B00DA11D30
S1130C50661F829F2227B00DA11D621F739FB00DD6
S1130C60A11D621F839FA00D611D221F749F332746
S1130C70A00D611D231F849F600D211D822F762FDF
S1130C806A2F11249F5750409AF0F1F088234AF0BC
S1130C90EE0FFF1FBB1F661F771F881F9150504028
S1130CA0A9F79E3F510580F00C94AD050C94F8050E
S1130CB05F3FE4F3983ED4F3869577956795B795AF
S1130CC0F795E7959F5FC1F7FE2B880F911D9695C9
S1130CD0879597F9089597FB072E16F4009407D08B
S1130CE077FD09D00E948E0607FC05D03EF490954E
S1130CF081959F4F0895709561957F4F0895A29FA8
S1130D00B001B39FC001A39F700D811D1124911DDB
S1130D10B29F700D811D1124911D0895AA1BBB1B48
S1130D2051E107C0AA1FBB1FA617B70710F0A61BE7
S1130D30B70B881F991F5A95A9F780959095BC0108
S10B0D40CD010895F894FFCFE2
S1130D483200350038003B003E00410044004700B3
S1130D584A004D004F0052005400560059005A00F2
S1130D685C005E005F006000620062006300640073
S1130D786400640064006400630062006200600050
S1130D885F005E005C005A0059005600540052008F
S1130D984F004D004A004700440041003E003B001C
S1130DA83800350032002F002C00290026002300CB
S1130DB820001D001A0017001500120010000E0074
S1130DC80B000A00080006000500040002000200E7
S1130DD80100000000000000000000000100020003
S1130DE8020004000500060008000A000B000E00BB
S1130DF810001200150017001A001D00200023001F
S1130E08260029002C002F000000344300E10000D4
S1070E1800000800CA
S9030000FC
